:100000000C9434000C9451000C9451000C94510049
:100010000C9451000C9451000C9451000C9451001C
:100020000C9451000C9451000C9451000C9451000C
:100030000C9451000C9451000C9451000C945100FC
:100040000C9451000C9451000C9493020C945100A8
:100050000C9451000C9451000C9451000C945100DC
:100060000C9451000C94510011241FBECFEFD8E026
:10007000DEBFCDBF11E0A0E0B1E0ECE2FCE002C0E9
:1000800005900D92AE31B107D9F721E0AEE1B1E0B4
:1000900001C01D92A932B207E1F70E9443010C94FE
:1000A00014060C9400008B3219F08D3279F008950B
:1000B00080911F01909120010196909320018093DF
:1000C0001F018AE091E00E94EB03089580911F01D7
:1000D0009091200101979093200180931F018EE061
:1000E00091E00E94EB03089580911F0190912001FF
:1000F0008A30910529F51092200110921F018091FC
:100100002101909122010196909322018093210177
:100110000A9709F058C01092220110922101809193
:10012000230190912401019690932401809323014F
:100130000A9709F048C010922401109223010895F3
:10014000019609F040C08091210190912201009711
:10015000A9F42091230130912401232B79F489E023
:1001600090E09093200180931F019093220180934F
:10017000210190932401809323010895009761F059
:100180000197909322018093210189E090E0909360
:10019000200180931F010895892BA9F480912301E8
:1001A00090912401009779F0019790932401809316
:1001B000230189E090E090932201809321019093A4
:1001C000200180931F0108954F925F926F927F925A
:1001D000AF92BF92CF92DF92EF92FF920F931F9355
:1001E000CF93DF93CDB7DEB728970FB6F894DEBF75
:1001F0000FBECDBF29013A01ED82FE820F83188721
:100200000E94FC0369837A838B839C83A6019501FA
:10021000698D7A8D8B8D9C8D0E94FC039B01AC01B6
:1002200069817A818B819C810E94980569837A8398
:100230008B839C83A3019201C801B7010E94FC0338
:100240009B01AC0169817A818B819C810E94690448
:100250009B01AC01C601B5010E94FD0328960FB6B3
:10026000F894DEBF0FBECDBFDF91CF911F910F91EC
:10027000FF90EF90DF90CF90BF90AF907F906F9006
:100280005F904F900895F8940E94C1020E944D0320
:100290000E94D00361E081E00E94BB0384E191E011
:1002A0000E94A50361E086E00E94BB0387E191E024
:1002B0000E94A50361E08BE00E94BB038AE191E00C
:1002C0000E94A503789480E00E94D902682F70E014
:1002D00080E090E00E940A050F2EF3E48F2EF02DAF
:1002E0008F920F2EFAEF9F2EF02D9F921F921F924A
:1002F000A12CB12C6501E12CF12C0FE713E4A60130
:1003000095010E94E4000F900F900F900F900E94B3
:10031000DB046B017C0170932801609327019B0132
:100320003695279536952795ABE7B4E10E940506EB
:100330008C01169507959601ADECBCEC0E94050664
:10034000AC015695479556954795569547959A0110
:100350000E940506EC01D695C795D695C795D6950A
:10036000C795CE01880F991FCC0FDD1FCC0FDD1F65
:10037000CC0FDD1FC80FD91FCA018C1B9D0BEC01D0
:10038000CA01880F991F440F551F440F551F440F72
:10039000551F480F591FC41AD50A62E081E00E9418
:1003A000BB03F801E050FF4F80810E948F038CE176
:1003B00091E00E94A503C050DF4F88810E948F0307
:1003C000F601E050FF4F80810E948F038FE39CE98C
:1003D0000197F1F700C0000081E00E94D902682F68
:1003E00070E080E090E00E940A058F929F921F9239
:1003F0001F92A12CB12C6501E12CF12C0FE713E425
:10040000A60195010E94E4000F900F900F900F90AD
:100410000E94DB046B017C0170932601609325012F
:100420009B013695279536952795ABE7B4E10E9459
:1004300005068C01169507959601ADECBCEC0E9463
:100440000506AC015695479556954795569547959F
:100450009A010E940506EC01D695C795D695C795D9
:10046000D695C795CE01880F991FCC0FDD1FCC0FF5
:10047000DD1FCC0FDD1FC80FD91FCA018C1B9D0BC0
:10048000EC01CA01880F991F440F551F440F551FD7
:10049000440F551F480F591FC41AD50A62E086E061
:1004A0000E94BB03F801E050FF4F80810E948F0340
:1004B0008CE191E00E94A503C050DF4F88810E942B
:1004C0008F03F601E050FF4F80810E948F038FE37E
:1004D0009CE90197F1F700C0000062E08BE00E9408
:1004E000BB03E0912301F0912401E050FF4F808194
:1004F0000E948F03E0912101F0912201E050FF4F13
:1005000080810E948F03E0911F01F0912001E05053
:10051000FF4F80810E948F038FE39CE90197F1F7E1
:1005200000C00000D0CE1F920F920FB60F92112480
:100530002F933F934F935F936F937F938F939F93EB
:10054000AF93BF93EF93FF938091C60080931E01FA
:100550000E9453000E9474008091C00085FFFCCF70
:10056000FF91EF91BF91AF919F918F917F916F918B
:100570005F914F913F912F910F900FBE0F901F9061
:100580001895ECE7F0E010828081806280838081A2
:1005900080648083EEE7F0E08081816080838081E9
:1005A00082608083EAE7F0E0108280818760808348
:1005B0000895ECE7F0E09081907F892B8083EAE753
:1005C000F0E0808180688083808180648083809176
:1005D0007A0086FDFCCF80917900089580FF04C0E9
:1005E0009BB194609BB903C09BB19B7F9BB981FF7A
:1005F00004C09BB198609BB903C09BB1977F9BB926
:1006000082FF04C09BB190619BB903C09BB19F7EE8
:100610009BB983FF04C09BB190629BB903C09BB19F
:100620009F7D9BB984FF04C09BB190649BB903C0BC
:100630009BB19F7B9BB985FF04C09BB190689BB920
:1006400003C09BB19F779BB986FF04C095B19160B1
:1006500095B903C095B19E7F95B9882324F485B1DF
:10066000826085B9089585B18D7F85B9089595B16A
:100670009F7D95B90E94EE0285B1806185B985E0C4
:100680008A95F1F7000085B18F7E85B98FE39FE1F0
:100690000197F1F700C00000089584B1806384B928
:1006A0008AB18C6F8AB984B1836084B91BB815B8DC
:1006B0002FEF89EF90E0215080409040E1F700C09B
:1006C000000088E30E9437038FE19EE40197F1F771
:1006D00000C0000088E30E9437038FE99FE0019784
:1006E000F1F700C0000088E30E9437038FE99FE024
:1006F0000197F1F700C0000088E30E9437038CE007
:100700000E94370381E00E9437038FE39FE1019746
:10071000F1F700C0000086E00E943703089595B10C
:10072000906295B90E94EE0285B1806185B985E03D
:100730008A95F1F7000085B18F7E85B98FE39FE13F
:100740000197F1F700C0000008950F931F93CF9316
:10075000DF938C01C0E0D0E003C00E948F0321969C
:10076000F801EC0FFD1F80818111F7CFDF91CF9150
:100770001F910F910895CF93613031F4CFE7C80FE7
:100780008C2F0E94370307C0623029F4CFEBC80FCB
:100790008C2F0E9437038C2F0E943703CF9108952E
:1007A0008AB18E7F8AB98AB182608AB91092C000FC
:1007B000E1ECF0E01082808188698083E2ECF0E077
:1007C000108280818660808387E690E09093C500E8
:1007D0008093C4000895AC0120E007C09091C00050
:1007E00095FFFCCF3093C6002F5FFA01E20FF11D99
:1007F00030813111F3CF08955058BB27AA270E94AA
:1008000014040C945E050E94500538F00E945705B0
:1008100020F039F49F3F19F426F40C944D050EF4A2
:10082000E095E7FB0C944705E92F0E946F0558F30C
:10083000BA17620773078407950720F079F4A6F5C5
:100840000C9491050EF4E0950B2EBA2FA02D0B0100
:10085000B90190010C01CA01A0011124FF27591B05
:1008600099F0593F50F4503E68F11A16F040A22F0B
:10087000232F342F4427585FF3CF4695379527957C
:10088000A795F0405395C9F77EF41F16BA0B620B7B
:10089000730B840BBAF09150A1F0FF0FBB1F661FC2
:1008A000771F881FC2F70EC0BA0F621F731F841F05
:1008B00048F4879577956795B795F7959E3F08F02B
:1008C000B0CF9395880F08F09927EE0F97958795ED
:1008D00008950E947D040C945E050E94570558F00F
:1008E0000E94500540F029F45F3F29F00C94470521
:1008F00051110C9492050C944D050E946F0568F3FC
:100900009923B1F3552391F3951B550BBB27AA27C8
:1009100062177307840738F09F5F5F4F220F331F02
:10092000441FAA1FA9F335D00E2E3AF0E0E832D0CA
:1009300091505040E695001CCAF72BD0FE2F29D0CD
:10094000660F771F881FBB1F261737074807AB079F
:10095000B0E809F0BB0B802DBF01FF2793585F4F14
:100960003AF09E3F510578F00C9447050C9492059F
:100970005F3FE4F3983ED4F3869577956795B795F6
:10098000F7959F5FC9F7880F911D9695879597F901
:100990000895E1E0660F771F881FBB1F621773077A
:1009A0008407BA0720F0621B730B840BBA0BEE1F8F
:1009B00088F7E09508950E94770588F09F5798F092
:1009C000B92F9927B751B0F0E1F0660F771F881F54
:1009D000991F1AF0BA95C9F714C0B13091F00E946E
:1009E0009105B1E008950C949105672F782F882721
:1009F000B85F39F0B93FCCF3869577956795B39595
:100A0000D9F73EF490958095709561957F4F8F4F03
:100A10009F4F0895E89409C097FB3EF49095809508
:100A2000709561957F4F8F4F9F4F9923A9F0F92FB4
:100A300096E9BB279395F695879577956795B79532
:100A4000F111F8CFFAF4BB0F11F460FF1BC06F5F18
:100A50007F4F8F4F9F4F16C0882311F096E911C02A
:100A6000772321F09EE8872F762F05C0662371F04B
:100A700096E8862F70E060E02AF09A95660F771F5F
:100A8000881FDAF7880F9695879597F9089597F953
:100A90009F6780E870E060E008959FEF80EC089524
:100AA00000240A941616170618060906089500244D
:100AB0000A9412161306140605060895092E0394C7
:100AC000000C11F4882352F0BB0F40F4BF2B11F43B
:100AD00060FF04C06F5F7F4F8F4F9F4F089557FD9A
:100AE0009058440F551F59F05F3F71F04795880F9C
:100AF00097FB991F61F09F3F79F087950895121633
:100B000013061406551FF2CF4695F1DF08C01616DE
:100B100017061806991FF1CF86957105610508948F
:100B20000895E894BB2766277727CB0197F90895A6
:100B30000E94AB050C945E050E94500538F00E949F
:100B4000570520F0952311F00C9447050C944D05A2
:100B500011240C9492050E946F0570F3959FC1F3C8
:100B6000950F50E0551F629FF001729FBB27F00D5B
:100B7000B11D639FAA27F00DB11DAA1F649F6627B0
:100B8000B00DA11D661F829F2227B00DA11D621FFF
:100B9000739FB00DA11D621F839FA00D611D221FB9
:100BA000749F3327A00D611D231F849F600D211D9D
:100BB000822F762F6A2F11249F5750409AF0F1F020
:100BC00088234AF0EE0FFF1FBB1F661F771F881F89
:100BD00091505040A9F79E3F510580F00C94470575
:100BE0000C9492055F3FE4F3983ED4F38695779595
:100BF0006795B795F795E7959F5FC1F7FE2B880F2F
:100C0000911D9695879597F90895A29FB001B39F7E
:100C1000C001A39F700D811D1124911DB29F700D05
:0C0C2000811D1124911D0895F894FFCF50
:100C2C00303132333435363738396D6173006D6598
:0E0C3C006E6F730056310056320043002E00DA
:00000001FF
